{
  "_format": "hh-sol-artifact-1",
  "contractName": "MusicPortal",
  "sourceName": "contracts/MusicPortal.sol",
  "abi": [
    {
      "inputs": [],
      "stateMutability": "payable",
      "type": "constructor"
    },
    {
      "anonymous": false,
      "inputs": [
        {
          "indexed": true,
          "internalType": "address",
          "name": "from",
          "type": "address"
        },
        {
          "indexed": false,
          "internalType": "uint256",
          "name": "timestamp",
          "type": "uint256"
        },
        {
          "indexed": false,
          "internalType": "string",
          "name": "title",
          "type": "string"
        },
        {
          "indexed": false,
          "internalType": "string",
          "name": "link",
          "type": "string"
        }
      ],
      "name": "NewSong",
      "type": "event"
    },
    {
      "anonymous": false,
      "inputs": [
        {
          "indexed": true,
          "internalType": "address",
          "name": "from",
          "type": "address"
        },
        {
          "indexed": false,
          "internalType": "uint256",
          "name": "timestamp",
          "type": "uint256"
        },
        {
          "indexed": false,
          "internalType": "uint256",
          "name": "reward",
          "type": "uint256"
        }
      ],
      "name": "RewardGranted",
      "type": "event"
    },
    {
      "inputs": [
        {
          "internalType": "string",
          "name": "_title",
          "type": "string"
        },
        {
          "internalType": "string",
          "name": "_link",
          "type": "string"
        }
      ],
      "name": "addSong",
      "outputs": [],
      "stateMutability": "nonpayable",
      "type": "function"
    },
    {
      "inputs": [],
      "name": "getAllSongs",
      "outputs": [
        {
          "components": [
            {
              "internalType": "address",
              "name": "sender",
              "type": "address"
            },
            {
              "internalType": "string",
              "name": "title",
              "type": "string"
            },
            {
              "internalType": "string",
              "name": "link",
              "type": "string"
            },
            {
              "internalType": "uint256",
              "name": "timestamp",
              "type": "uint256"
            }
          ],
          "internalType": "struct MusicPortal.Song[]",
          "name": "",
          "type": "tuple[]"
        }
      ],
      "stateMutability": "view",
      "type": "function"
    },
    {
      "inputs": [],
      "name": "getTotalSongs",
      "outputs": [
        {
          "internalType": "uint256",
          "name": "",
          "type": "uint256"
        }
      ],
      "stateMutability": "view",
      "type": "function"
    },
    {
      "inputs": [
        {
          "internalType": "address",
          "name": "",
          "type": "address"
        }
      ],
      "name": "lastCall",
      "outputs": [
        {
          "internalType": "uint256",
          "name": "",
          "type": "uint256"
        }
      ],
      "stateMutability": "view",
      "type": "function"
    }
  ],
  "bytecode": "0x60806040526200004f6040518060400160405280601281526020017f436f6e7472616374206465706c6f7965642100000000000000000000000000008152506200007760201b620007921760201c565b606444426200005f9190620001c4565b6200006b919062000261565b60018190555062000308565b62000117816040516024016200008e919062000184565b6040516020818303038152906040527f41304fac000000000000000000000000000000000000000000000000000000007bffffffffffffffffffffffffffffffffffffffffffffffffffffffff19166020820180517bffffffffffffffffffffffffffffffffffffffffffffffffffffffff83818316178352505050506200011a60201b60201c565b50565b60008151905060006a636f6e736f6c652e6c6f679050602083016000808483855afa5050505050565b60006200015082620001a8565b6200015c8185620001b3565b93506200016e8185602086016200022b565b6200017981620002f7565b840191505092915050565b60006020820190508181036000830152620001a0818462000143565b905092915050565b600081519050919050565b600082825260208201905092915050565b6000620001d18262000221565b9150620001de8362000221565b9250827fffffffffffffffffffffffffffffffffffffffffffffffffffffffffffffffff0382111562000216576200021562000299565b5b828201905092915050565b6000819050919050565b60005b838110156200024b5780820151818401526020810190506200022e565b838111156200025b576000848401525b50505050565b60006200026e8262000221565b91506200027b8362000221565b9250826200028e576200028d620002c8565b5b828206905092915050565b7f4e487b7100000000000000000000000000000000000000000000000000000000600052601160045260246000fd5b7f4e487b7100000000000000000000000000000000000000000000000000000000600052601260045260246000fd5b6000601f19601f8301169050919050565b61141f80620003186000396000f3fe608060405234801561001057600080fd5b506004361061004c5760003560e01c806329ef68621461005157806388d00d261461006f5780638c9db2b41461009f578063955de0fd146100bd575b600080fd5b6100596100d9565b6040516100669190610e25565b60405180910390f35b61008960048036038101906100849190610b4e565b6102bc565b6040516100969190610f83565b60405180910390f35b6100a76102d4565b6040516100b49190610f83565b60405180910390f35b6100d760048036038101906100d29190610b77565b61031f565b005b60606003805480602002602001604051908101604052809291908181526020016000905b828210156102b357838290600052602060002090600402016040518060800160405290816000820160009054906101000a900473ffffffffffffffffffffffffffffffffffffffff1673ffffffffffffffffffffffffffffffffffffffff1673ffffffffffffffffffffffffffffffffffffffff168152602001600182018054610186906111a7565b80601f01602080910402602001604051908101604052809291908181526020018280546101b2906111a7565b80156101ff5780601f106101d4576101008083540402835291602001916101ff565b820191906000526020600020905b8154815290600101906020018083116101e257829003601f168201915b50505050508152602001600282018054610218906111a7565b80601f0160208091040260200160405190810160405280929190818152602001828054610244906111a7565b80156102915780601f1061026657610100808354040283529160200191610291565b820191906000526020600020905b81548152906001019060200180831161027457829003601f168201915b50505050508152602001600382015481525050815260200190600101906100fd565b50505050905090565b60026020528060005260406000206000915090505481565b60006103176040518060400160405280601781526020017f5765206861766520256420746f74616c20736f6e67732100000000000000000081525060005461082b565b600054905090565b42610384600260003373ffffffffffffffffffffffffffffffffffffffff1673ffffffffffffffffffffffffffffffffffffffff1681526020019081526020016000205461036d91906110d3565b106103ad576040517f08c379a00000000000000000000000000000000000000000000000000000000081526004016103a490610f63565b60405180910390fd5b42600260003373ffffffffffffffffffffffffffffffffffffffff1673ffffffffffffffffffffffffffffffffffffffff16815260200190815260200160002081905550600160008082825461040391906110d3565b9250508190555061044b6040518060400160405280601b81526020017f25732073656e74206120736f6e673a202573206c696e6b3a20257300000000008152503384846108c7565b600360405180608001604052803373ffffffffffffffffffffffffffffffffffffffff16815260200184815260200183815260200142815250908060018154018082558091505060019003906000526020600020906004020160009091909190915060008201518160000160006101000a81548173ffffffffffffffffffffffffffffffffffffffff021916908373ffffffffffffffffffffffffffffffffffffffff1602179055506020820151816001019080519060200190610510929190610a2e565b50604082015181600201908051906020019061052d929190610a2e565b506060820151816003015550506064600154424461054b91906110d3565b61055591906110d3565b61055f919061120a565b6001819055506105a66040518060400160405280601681526020017f52616e646f6d20232067656e6572617465643a2025640000000000000000000081525060015461082b565b60146001541161073c576105ef6040518060400160405280600781526020017f257320776f6e210000000000000000000000000000000000000000000000000081525033610969565b6000655af3107a400090504781111561063d576040517f08c379a000000000000000000000000000000000000000000000000000000000815260040161063490610f23565b60405180910390fd5b60003373ffffffffffffffffffffffffffffffffffffffff168260405161066390610e10565b60006040518083038185875af1925050503d80600081146106a0576040519150601f19603f3d011682016040523d82523d6000602084013e6106a5565b606091505b50509050806106e9576040517f08c379a00000000000000000000000000000000000000000000000000000000081526004016106e090610f43565b60405180910390fd5b3373ffffffffffffffffffffffffffffffffffffffff167f88d0322178078e6d39a0e6e081d01db3b0683f645ab2b062942a7382ab571d2b4284604051610731929190610fe3565b60405180910390a250505b3373ffffffffffffffffffffffffffffffffffffffff167fe8ed0ca8b3f95521c0e7647b2f25ee6be916f68721aa54616efebb9bf5cba0d342848460405161078693929190610f9e565b60405180910390a25050565b610828816040516024016107a69190610e47565b6040516020818303038152906040527f41304fac000000000000000000000000000000000000000000000000000000007bffffffffffffffffffffffffffffffffffffffffffffffffffffffff19166020820180517bffffffffffffffffffffffffffffffffffffffffffffffffffffffff8381831617835250505050610a05565b50565b6108c38282604051602401610841929190610ef3565b6040516020818303038152906040527f9710a9d0000000000000000000000000000000000000000000000000000000007bffffffffffffffffffffffffffffffffffffffffffffffffffffffff19166020820180517bffffffffffffffffffffffffffffffffffffffffffffffffffffffff8381831617835250505050610a05565b5050565b610963848484846040516024016108e19493929190610e99565b6040516020818303038152906040527f245986f2000000000000000000000000000000000000000000000000000000007bffffffffffffffffffffffffffffffffffffffffffffffffffffffff19166020820180517bffffffffffffffffffffffffffffffffffffffffffffffffffffffff8381831617835250505050610a05565b50505050565b610a01828260405160240161097f929190610e69565b6040516020818303038152906040527f319af333000000000000000000000000000000000000000000000000000000007bffffffffffffffffffffffffffffffffffffffffffffffffffffffff19166020820180517bffffffffffffffffffffffffffffffffffffffffffffffffffffffff8381831617835250505050610a05565b5050565b60008151905060006a636f6e736f6c652e6c6f679050602083016000808483855afa5050505050565b828054610a3a906111a7565b90600052602060002090601f016020900481019282610a5c5760008555610aa3565b82601f10610a7557805160ff1916838001178555610aa3565b82800160010185558215610aa3579182015b82811115610aa2578251825591602001919060010190610a87565b5b509050610ab09190610ab4565b5090565b5b80821115610acd576000816000905550600101610ab5565b5090565b6000610ae4610adf84611031565b61100c565b905082815260208101848484011115610afc57600080fd5b610b07848285611165565b509392505050565b600081359050610b1e816113d2565b92915050565b600082601f830112610b3557600080fd5b8135610b45848260208601610ad1565b91505092915050565b600060208284031215610b6057600080fd5b6000610b6e84828501610b0f565b91505092915050565b60008060408385031215610b8a57600080fd5b600083013567ffffffffffffffff811115610ba457600080fd5b610bb085828601610b24565b925050602083013567ffffffffffffffff811115610bcd57600080fd5b610bd985828601610b24565b9150509250929050565b6000610bef8383610d88565b905092915050565b610c0081611129565b82525050565b610c0f81611129565b82525050565b6000610c2082611072565b610c2a8185611095565b935083602082028501610c3c85611062565b8060005b85811015610c785784840389528151610c598582610be3565b9450610c6483611088565b925060208a01995050600181019050610c40565b50829750879550505050505092915050565b6000610c958261107d565b610c9f81856110b1565b9350610caf818560208601611174565b610cb8816112f7565b840191505092915050565b6000610cce8261107d565b610cd881856110c2565b9350610ce8818560208601611174565b610cf1816112f7565b840191505092915050565b6000610d096034836110c2565b9150610d1482611308565b604082019050919050565b6000610d2c6027836110c2565b9150610d3782611357565b604082019050919050565b6000610d4f6000836110a6565b9150610d5a826113a6565b600082019050919050565b6000610d726008836110c2565b9150610d7d826113a9565b602082019050919050565b6000608083016000830151610da06000860182610bf7565b5060208301518482036020860152610db88282610c8a565b91505060408301518482036040860152610dd28282610c8a565b9150506060830151610de76060860182610df2565b508091505092915050565b610dfb8161115b565b82525050565b610e0a8161115b565b82525050565b6000610e1b82610d42565b9150819050919050565b60006020820190508181036000830152610e3f8184610c15565b905092915050565b60006020820190508181036000830152610e618184610cc3565b905092915050565b60006040820190508181036000830152610e838185610cc3565b9050610e926020830184610c06565b9392505050565b60006080820190508181036000830152610eb38187610cc3565b9050610ec26020830186610c06565b8181036040830152610ed48185610cc3565b90508181036060830152610ee88184610cc3565b905095945050505050565b60006040820190508181036000830152610f0d8185610cc3565b9050610f1c6020830184610e01565b9392505050565b60006020820190508181036000830152610f3c81610cfc565b9050919050565b60006020820190508181036000830152610f5c81610d1f565b9050919050565b60006020820190508181036000830152610f7c81610d65565b9050919050565b6000602082019050610f986000830184610e01565b92915050565b6000606082019050610fb36000830186610e01565b8181036020830152610fc58185610cc3565b90508181036040830152610fd98184610cc3565b9050949350505050565b6000604082019050610ff86000830185610e01565b6110056020830184610e01565b9392505050565b6000611016611027565b905061102282826111d9565b919050565b6000604051905090565b600067ffffffffffffffff82111561104c5761104b6112c8565b5b611055826112f7565b9050602081019050919050565b6000819050602082019050919050565b600081519050919050565b600081519050919050565b6000602082019050919050565b600082825260208201905092915050565b600081905092915050565b600082825260208201905092915050565b600082825260208201905092915050565b60006110de8261115b565b91506110e98361115b565b9250827fffffffffffffffffffffffffffffffffffffffffffffffffffffffffffffffff0382111561111e5761111d61123b565b5b828201905092915050565b60006111348261113b565b9050919050565b600073ffffffffffffffffffffffffffffffffffffffff82169050919050565b6000819050919050565b82818337600083830152505050565b60005b83811015611192578082015181840152602081019050611177565b838111156111a1576000848401525b50505050565b600060028204905060018216806111bf57607f821691505b602082108114156111d3576111d2611299565b5b50919050565b6111e2826112f7565b810181811067ffffffffffffffff82111715611201576112006112c8565b5b80604052505050565b60006112158261115b565b91506112208361115b565b9250826112305761122f61126a565b5b828206905092915050565b7f4e487b7100000000000000000000000000000000000000000000000000000000600052601160045260246000fd5b7f4e487b7100000000000000000000000000000000000000000000000000000000600052601260045260246000fd5b7f4e487b7100000000000000000000000000000000000000000000000000000000600052602260045260246000fd5b7f4e487b7100000000000000000000000000000000000000000000000000000000600052604160045260246000fd5b6000601f19601f8301169050919050565b7f547279696e6720746f207769746864726177206d6f7265206d6f6e657920746860008201527f616e2074686520636f6e7472616374206861732e000000000000000000000000602082015250565b7f4661696c656420746f207769746864726177206d6f6e65792066726f6d20636f60008201527f6e74726163742e00000000000000000000000000000000000000000000000000602082015250565b50565b7f576169742031356d000000000000000000000000000000000000000000000000600082015250565b6113db81611129565b81146113e657600080fd5b5056fea2646970667358221220ffeb3ddbfebf7b3e5bcb807409a30134a9329a0cb4f7f80a96af03854fb5adbe64736f6c63430008040033",
  "linkReferences": {},
  "deployedLinkReferences": {}
}